:020000040000fa
:080000000002040000000000f2
:020000040000fa
:040008001a030000d7
:020000040000fa
:04000c001a030000d3
:020000040000fa
:040010001a030000cf
:020000040000fa
:040014001a030000cb
:020000040000fa
:040018001a030000c7
:020000040000fa
:04001c001a030000c3
:020000040000fa
:040020001a030000bf
:020000040000fa
:040024001a030000bb
:020000040000fa
:040028001a030000b7
:020000040000fa
:04002c001a030000b3
:020000040000fa
:040030001a030000af
:020000040000fa
:04003400a214000012
:020000040000fa
:040038001a030000a7
:020000040000fa
:04003c001a030000a3
:020000040000fa
:040040001a0300009f
:020000040000fa
:04004400cc020000ea
:020000040000fa
:04004800fc020000b6
:020000040000fa
:04004c001a03000093
:020000040000fa
:040050001a0300008f
:020000040000fa
:040054001a0300008b
:020000040000fa
:040058001a03000087
:020000040000fa
:04005c001a03000083
:020000040000fa
:040060001a0300007f
:020000040000fa
:040064001a0300007b
:020000040000fa
:040068001a03000077
:020000040000fa
:04006c001a03000073
:020000040000fa
:040070001a0300006f
:020000040000fa
:040074001a0300006b
:020000040000fa
:040078001a03000067
:020000040000fa
:04007c001a03000063
:020000040000fa
:040080001a0300005f
:020000040000fa
:040084001a0300005b
:020000040000fa
:040088001a03000057
:020000040000fa
:04008c001a03000053
:020000040000fa
:040090001a0300004f
:020000040000fa
:040094001a0300004b
:020000040000fa
:040098001a03000047
:020000040000fa
:04009c001a03000043
:020000040000fa
:0400a0001a0300003f
:020000040000fa
:0400a4001a0300003b
:020000040000fa
:0400a8001a03000037
:020000040000fa
:0400ac001a03000033
:020000040000fa
:0400b0001a0300002f
:020000040000fa
:0400b4001a0300002b
:020000040000fa
:0400b8001a03000027
:020000040000fa
:0400bc001a03000023
:020000040000fa
:0400c0001a0300001f
:020000040000fa
:0400c4001a0300001b
:020000040000fa
:0400c8001a03000017
:020000040000fa
:0400cc001a03000013
:020000040000fa
:0400d0001a0300000f
:020000040000fa
:0400d4001a0300000b
:020000040000fa
:0400d8001a03000007
:020000040000fa
:0400dc001a03000003
:020000040000fa
:0400e0001a030000ff
:020000040000fa
:0400e4001a030000fb
:020000040000fa
:0400e8001a030000f7
:020000040000fa
:0400ec001a030000f3
:020000040000fa
:0400f0001a030000ef
:020000040000fa
:0400f4001a030000eb
:020000040000fa
:0400f8001a030000e7
:020000040000fa
:0400fc001a030000e3
:020000040000fa
:040100001a030000de
:020000040000fa
:040104001a030000da
:020000040000fa
:040108001a030000d6
:020000040000fa
:04010c001a030000d2
:020000040000fa
:040110001a030000ce
:020000040000fa
:040114001a030000ca
:020000040000fa
:040118001a030000c6
:020000040000fa
:04011c001a030000c2
:020000040000fa
:040120001a030000be
:020000040000fa
:040124001a030000ba
:020000040000fa
:040128001a030000b6
:020000040000fa
:04012c001a030000b2
:020000040000fa
:040130001a030000ae
:020000040000fa
:040134001a030000aa
:020000040000fa
:040208001a030000d5
:020000040000fa
:04020c001a030000d1
:020000040000fa
:040210001a030000cd
:020000040000fa
:040214001a030000c9
:020000040000fa
:040218001a030000c5
:020000040000fa
:04021c001a030000c1
:020000040000fa
:040220001a030000bd
:020000040000fa
:040224001a030000b9
:020000040000fa
:040228001a030000b5
:020000040000fa
:04022c001a030000b1
:020000040000fa
:040230001a030000ad
:020000040000fa
:040234001a030000a9
:020000040000fa
:040238001a030000a5
:020000040000fa
:04023c001a030000a1
:020000040000fa
:040240001a0300009d
:020000040000fa
:040244001a03000099
:020000040000fa
:040248001a03000095
:020000040000fa
:04024c001a03000091
:020000040000fa
:040250001a0300008d
:020000040000fa
:040254001a03000089
:020000040000fa
:040258001a03000085
:020000040000fa
:04025c001a03000081
:020000040000fa
:040260001a0300007d
:020000040000fa
:040264001a03000079
:020000040000fa
:040268001a03000075
:020000040000fa
:04026c001a03000071
:020000040000fa
:040270001a0300006d
:020000040000fa
:040274001a03000069
:020000040000fa
:040278001a03000065
:020000040000fa
:04027c001a03000061
:020000040000fa
:040280001a0300005d
:020000040000fa
:040284001a03000059
:020000040000fa
:040288001a03000055
:020000040000fa
:04028c001a03000051
:020000040000fa
:040290001a0300004d
:020000040000fa
:040294001a03000049
:020000040000fa
:040298001a03000045
:020000040000fa
:04029c001a03000041
:020000040000fa
:0402a0001a0300003d
:020000040000fa
:0402a4001a03000039
:020000040000fa
:0402a8001a03000035
:020000040000fa
:0402ac001a03000031
:020000040000fa
:0402b0001a0300002d
:020000040000fa
:0402b4001a03000029
:020000040000fa
:0402b8001a03000025
:020000040000fa
:0402bc001a03000021
:020000040000fa
:0402c0001a0300001d
:020000040000fa
:0402c4001a03000019
:020000040000fa
:0402c8001a03000015
:020000040000fa
:0402cc001a03000011
:020000040000fa
:0402d0001a0300000d
:020000040000fa
:0402d4001a03000009
:020000040000fa
:0402d8001a03000005
:020000040000fa
:0402dc001a03000001
:020000040000fa
:0402e0001a030000fd
:020000040000fa
:0402e4001a030000f9
:020000040000fa
:0402e8001a030000f5
:020000040000fa
:0402ec001a030000f1
:020000040000fa
:0402f0001a030000ed
:020000040000fa
:0402f4001a030000e9
:020000040000fa
:0402f8001a030000e5
:020000040000fa
:0402fc001a030000e1
:020000040000fa
:040300001a030000dc
:020000040000fa
:040304001a030000d8
:020000040000fa
:040308001a030000d4
:020000040000fa
:04030c001a030000d0
:020000040000fa
:040310001a030000cc
:020000040000fa
:040314001a030000c8
:020000040000fa
:040318001a030000c4
:020000040000fa
:04031c001a030000c0
:020000040000fa
:040320001a030000bc
:020000040000fa
:040324001a030000b8
:020000040000fa
:040328001a030000b4
:020000040000fa
:04032c001a030000b0
:020000040000fa
:040330001a030000ac
:020000040000fa
:040334001a030000a8
:020000040000fa
:100400006fa920000e7f22000e018800000000006e
:10041000000020000000e000020032000001200087
:100420002002880014000700d10007000000e0004f
:1004300003003a00a059210001002000020037000b
:100440000000200001002000810f70000100320038
:1004500014000700000020000000e000020032004d
:100460000000020000000000be18020000000000b2
:100470000040da000000fe004440a900a002200075
:100480000000e0000300320000002000a00188000e
:100490004440a800000006008a1f78008b1f7800e7
:1004a0000000060091018800800478000000eb0045
:1004b0001a003700e284440032a0b4009905ba0063
:1004c000e284440032a0b4009906ba00e2844400f9
:1004d00032a0b4000006eb00476fde00fd07b2005b
:1004e000636ce10003003a00ebff07000000eb0043
:1004f0000a003700606ce10004003a00005deb0088
:100500008b05e900fdff3e00040037006168e10053
:10051000010032000086eb000b00070019c7ba008b
:100520001905ba000e04e00003003a000a00e000da
:10053000e0ff3a0000000600fe07b2009e018800be
:100540008a047800f5ff3700395dba008b05e900b1
:100550000c003200295dba008b05e900080032006a
:100560000c00e00003003a00e284440032a0b40032
:10057000f5ff370019ddba008b05e900faff3a00f4
:100580008904e800e184440032a0b40000000600c1
:100590004a17040000000000801f78000000fa00e5
:1005a0002ec8bf000040e8002ee8b7002ec8bf00ec
:1005b0000004e000030034002e68ef00100020006b
:1005c000504188002fc8bf000040e8002fe8b70066
:1005d0002fc8bf00e34f5000030034002f68ef0026
:1005e000100020006041880084e0a9000080fa002b
:1005f0004f007800004006003600f800809fbe00e3
:10060000829fbe00849fbe00869fbe000000fa004d
:100610000c0b07008500a9000080fa004f03be0004
:100620004f02be004f01be004f00be003600f90071
:10063000004006000040da000000fe000a00fa0058
:10064000e20f50001f003e00604e8000e10f50009e
:1006500006003200802320004523200023232000b1
:10066000042320000000e00004003a008022200063
:10067000452220002322200004222000060028001a
:100680009403630002003a0007087800140a73001c
:1006900013a8a30001003a0013a0a00002007800f4
:1006a000050037001388a300feff32003102fb0073
:1006b000840a78000000e9000000e000f9ff3a0039
:1006c0000800370033002000b3bf9f00c0bf9f0069
:1006d000d1bf9f00e2bf9f006a80570085040700da
:1006e0006fb99700020078000080fa000000060051
:1006f00099a0a90001e6a90089a0a90000000600b0
:100700000e26ef00e702620099a0a900f6f82f007c
:1007100089a0a900c42add00a70b2000970b630065
:1007200068026200003088004322de001130880039
:100730006102620062308800060078002330880081
:100740004d22dd00ba00b60000807200d00588009e
:10075000f0ff2d009800b60000007200c004880071
:1007600001e6a80000000600203088000000060016
:10077000000005006022b800060220000000d00042
:100780008180d2000482d2008582d2000000a000c5
:100790000202520083825a0003003100020242002a
:1007a00083824a000000a1000603e900f3ff3a003b
:1007b00000000600889fbe008a9fbe0030044200f1
:1007c000b0844a0030054b0090854b006000b100ba
:1007d0000898be000a90be000440e10005c8e10090
:1007e00006d0e10007d8e1000200310068004000b7
:1007f0001008e8004f05be004f04be0000000600d0
:10080000889fbe008a9fbe003004be002005be0047
:100810000418540005985c0006185d0007985d00f8
:10082000110020000440e10005c8e10006d0e1000d
:1008300007d8e100010039008000eb0010881000ab
:100840004f05be004f04be00000006001200fa0073
:10085000889fbe008a9fbe008c9fbe00e0b79f00ad
:10086000f1b79f0082bf9f0093bf9f000605be00a7
:100870000404be000000eb00d0b79f00c0b79f008b
:10088000b0b79f00a0b79f0090b79f000006eb0095
:100890005fb19700cfb09700820141003fb0970051
:1008a0000200e00004003d00370007007e80570092
:1008b000c0ff070003003700330007007e805700a9
:1008c000cfff0700dfb697000d00e0000c003500f9
:1008d0006fb29700ffb297000fbb97009fbb9700c6
:1008e00010002000010020006011b800000272001a
:1008f0008182720002037300838373001b00070070
:100900000c06e80001042000810f5600e0ff3a00c9
:100910000d00e00004003d000802be000a03be0016
:100920007e805700a3ff07005fa897000000e0004b
:1009300005003a001fb29700afb297003fb397008f
:10094000cfb39700090007006fb09700ffb0970082
:100950000fb997009fb997004f06be004f05be0024
:100960004f04be000080fa000000060001000700ee
:1009700000000600a4b79f00b5b79f00c6b79f0050
:10098000d7b79f00000006004f09de00828171008a
:10099000b3b79f004f01de0081804000828070006d
:1009a000a1b79f008fb097004f09de000000400004
:1009b0000200700090b79f007fa897004f01de00f3
:1009c000818040008280700081b79f000d00070089
:1009d0004f3ade000000400004007000f0af9f00be
:1009e000080007000402420085824a0006034b000b
:1009f00087834b00dfff07000802be000a03be002a
:100a0000000006002fb29700bfb297004fb39700c7
:100a1000dfb3970000000600881f78001800200050
:100a2000881f780089ff07008f87e9004f0478004e
:100a300000000600801feb0084ff07008f87e9009d
:100a400000000600889fbe008a9fbe00e00f500095
:100a5000e08f5800e00f5900e08f59000c003d0076
:100a60006044b8006055b8000000540081805c000c
:100a700002015d0083815d00180020001500070061
:100a800008003d00180007000004eb0005003700d7
:100a90000004eb000f00070002003d0012000700f9
:100aa00018002000dcff07000800e000060032000c
:100ab0006022b8006033b8000000520081805a0004
:100ac00002015b0083815b004f05be004f04be0046
:100ad00000000600e00f5200e08f5a00e00f5b00bc
:100ae000e08f5b00000006006044b8006055b8006d
:100af0000402540085825c0006035d0087835d006c
:100b000000000600889fbe008a9fbe008c1f7800f0
:100b1000e00f5000e08f5800e00f5900e08f5900bf
:100b20000d003d006044b8006055b800000054005e
:100b300081805c0002015d0083815d001c0020005b
:100b40000820e10009a8e1000ab0e1000bb8e100cb
:100b50000d003d00080037000006eb00e00f5200da
:100b6000e08f5a00e00f5b00e08f5b0006003d0065
:100b70006044b8006055b8000402540085825c00ef
:100b800006035d0087835d00aaff07000c00e000fc
:100b9000060032006022b8006033b8000000520046
:100ba00081805a0002015b0083815b004f06780060
:100bb0004f05be004f04be00000006008001780013
:100bc00002003700b15978000201e9000200e0009c
:100bd000fcff3a00000006000c00fa00889fbe00ef
:100be00000047800f0ff2700d0bf9f008004eb00d6
:100bf00099bf9f0088bf9f00a8bf9f00200c2000c6
:100c0000b0bf9f0078815700cfb097007080570029
:100c1000100007000fb89700094878008fb89700b8
:100c2000088050004f04be000080fa00000006005b
:100c3000d0019000028151004240a900030034001d
:100c400010017800014978000208e80001007800ee
:100c500000000600f6874700889fbe008a9fbe00fe
:100c60008c9fbe008e1f780000057800a1b79f0002
:100c7000020778008004eb0090023700afb09700c5
:100c80008100e800a1b79f0051c2b300814f50001e
:100c900003003a00afb097000004eb0011003700ea
:100ca000ba0090000000fb000168a30007003200ba
:100cb00009017800800078000a007800dcff070056
:100cc0000000e00005003a007c0237008a0078004e
:100cd00086020700e10f4000780232008904e80034
:100ce000760237000100780031417800d3c2b300aa
:100cf000834f51000c00320007003c00edc1510051
:100d0000834f51000a003200ebc14100834f510074
:100d10000d003a000800370003c3b300834f5100b1
:100d200009003a00060037000830a000edff370048
:100d30000800a000ebff37000810a000e9ff370013
:100d40000820a000e7ff37000818a30001003200c8
:100d50000800a1000838a300010032000820a1000b
:100d60008200fb000103b100e98f50000c003e003f
:100d7000000178008000eb006a08b900b201fb00b6
:100d80000303b10080804100020078009201fb0063
:100d90000303b100e98f5100f7ff3600060037006a
:100da0008000eb00a3c2b300834f510002003a0061
:100db000ce0078000000e8008005eb00e2c2b3003e
:100dc000904f110009003a0008e0a0006441510072
:100dd000d04f1100030032000001780001027800ba
:100de00006003700ce0578000000e800000178001a
:100df000090037006a58b900808541000200780078
:100e0000b201fb000303b100e98f5100f9ff360086
:100e100084007800f5ff370032407800a2b79f00c9
:100e2000c3c6b300834f5000250032000f003c00c2
:100e300032c6b300824f50008800320004003c00ec
:100e40000004e000220232006b4151000f00370025
:100e500042c6b300824f5000170032006541410086
:100e6000824f500094003a001300370032c7b3009d
:100e7000824f50001b00320007003c0064415100cb
:100e8000824f5000100032000241e800824f5000b3
:100e900089003a000f00370052c7b300824f50005c
:100ea0008a00320063414100824f500082003a00c4
:100eb000e0df9f0009003700e0df9f00850037007a
:100ec0000840a000d4ff3700e0df9f000860a000ca
:100ed00080003700e0df9f000850a0000870a000ed
:100ee0007c003700e0df9f004e00780000067800ad
:100ef0000000e00001003a00ac9620000c017800f0
:100f00000000eb00010037000000e800e24178003b
:100f10000304e000fcff3a00800678000b00e000cc
:100f2000030032008d8f5500010031008b067800e0
:100f30008005eb008d8f5000010036008d8550003c
:100f4000680464002a003a00110037003a0090005b
:100f50000068a300070032000901780001022000a8
:100f60000a00780032ff07000000e00006003a00a7
:100f7000060037008a00780000022000db0107002d
:100f8000e10f4000010032008904e8008b05e90010
:100f90000b00e000edff3a008085eb001400370005
:100fa0003a0090000068a300090032000c007800ad
:100fb000b000fb0000067800090178000a00780004
:100fc0001bff07000000e00008003a00080037009f
:100fd0008c0078003100fb00010678008a00780060
:100fe000c2010700e10f4000010032008904e8005f
:100ff0000d0078008006e9000000e000e8ff3a00fc
:101000000800e000ad013200110037003a00900006
:101010000068a300070032000901780001022000e7
:101020000a00780002ff07000000e00006003a0016
:10103000060037008a00780000022000ab0107009c
:10104000e10f4000010032008904e8008b05e9004f
:101050000b00e000edff3a00980137004e017800e8
:10106000cf91de00c81ade004818dd004812de000d
:1010700004027000e4df9f000848a300080032006b
:101080000404e00006003200e14f42000400320098
:10109000f4df9f0082e79f002d0020000200370050
:1010a000f2df9f001d002000e2fd2f000f01410034
:1010b0000206e80099ff3700e0df9f00ecfd2f00fb
:1010c0000f0646001d00200094ff3700e0df9f0060
:1010d000080cb30008017800020cb2007000640034
:1010e0000200e0000d003a000000e00002003200c3
:1010f0004e06be00020037004e067800cfe6de0046
:10110000e00f5600e08f5e000a003d003800b3009b
:1011100060061600e0861e00060037000000e000b2
:10112000020032004e06be00020037004e06780074
:101130008006eb000b00e00005003a008c8576008d
:101140000bf0a7008b05ea008b05e900cf5dde0000
:1011500088017800030cb200e3b79f000004200070
:10116000808f51002300320003003c000300e000a8
:10117000080032002d003700000820006fb29700f1
:10118000800f52000d003200000c2000800f520032
:1011900026003a002297200010c0b30064014100ed
:1011a000b20f5600a28f5e001f0039000040e80019
:1011b000ea4f5000f9ff3a001b00370010c0b3009f
:1011c0000201200003002000820f5600838f5e0082
:1011d00015003900441add00cc11de0083017200d5
:1011e0004411dd000040e800e84f5000f6ff3a00ef
:1011f0000d00370010c0b300820020000300200063
:10120000820f5600838f5e0007003900431add000d
:10121000cd11de00830172004311dd000040e800c3
:10122000eb4f5000f6ff3a00e0df9f006fd99700c8
:101230000200fb008b0f500002003d00ebdf9f001f
:1012400003003700808f550001003d0080057800c5
:101250000100e0000300320063006400010032007e
:101260008100e90008e8a300050032008b8f5000e0
:10127000020034008b805000010037008000eb003a
:10128000efd997000300fb000002eb00d4b79f00ea
:10129000808f50000200340000805000d0b79f00c3
:1012a0000828a30040003200610164000818a30070
:1012b0000f0032003a0090000068a30006003200e0
:1012c000b10220000200e000010032008180e8004d
:1012d000090178000d003700b00220000200e00094
:1012e000010032000080e8008a0078000e0037001c
:1012f0000200e000100032003a0090000068a300f5
:101300000700320009017800010220000a0078007d
:1013100047fe07000000e00006003a000600370024
:101320008a00780000022000f0000700e10f400072
:10133000010032008904e8005fb097000000e0007f
:101340005a003200bcb79f00cdb79f0080067800de
:101350003a0090000068a3000700320009017800fd
:10136000010320000a00780031fe07000000e000c1
:1013700006003a00060037008a00780000032000cb
:10138000da000700e10f4000010032008904e800a4
:101390008d06e900eeff3a00ddb79f003fb69700eb
:1013a000cfb6970041003700dfb197000300e0009f
:1013b0001a0032000838a30018003a00bcb79f009a
:1013c000cdb79f00830678003a0090000068a30024
:1013d0000700320009017800010220000a007800ad
:1013e00013fe07000000e00006003a000600370088
:1013f0008a00780000022000bc000700e10f4000d6
:10140000010032008904e8008d06e900eeff3a0091
:10141000ddb79f003fb69700cfb69700610164002b
:101420000818a3000f0032003a0090000068a300e3
:1014300006003200b10220000200e000010032008c
:101440008180e800090178000d003700b00220001b
:101450000200e000010032000080e8008a0078000d
:101460000e0037000200e000100032003a00900049
:101470000068a30007003200090178000102200083
:101480000a007800eafd07000000e00006003a00cc
:10149000060037008a007800000220009300070051
:1014a000e10f4000010032008904e8000b03e9006d
:1014b0006330b90000017800b2b79f004233dd000d
:1014c00020972000000343008e01780093b79f000f
:1014d00008077800060478005c0037008b05e900f7
:1014e000000420006fb29700800f520038003200d5
:1014f00003003c000400e000080032003e0037001a
:1015000000082000efb09700808f500020003200cc
:10151000000c2000808f500037003a000e48a300d6
:10152000100032001802be000401be000c00be0014
:10153000f4b79f0085bf9f008efc0700e0df9f008f
:101540000000fb00cf80de007fb297008fba9700cb
:101550000401be00e90007000006560081865e0017
:101560000700370018017800110009000286d80032
:10157000a2002000110009000280d800e1df9f00d6
:101580006fd997000243b000e2df9f001a003700d6
:10159000909520000e58a300010032008094200096
:1015a00021972000810054000c01be008100e90059
:1015b000030033008301d1000281d300fbff370019
:1015c000ef006100e0c07800e1df9f000a00370013
:1015d0000c00be00bfb197008301e9000300330097
:1015e0008100d1000080d300fbff3700674060001e
:1015f0000043b000e0df9f00ba0090006fda970070
:101600000400fb000168a300070032000901780014
:10161000800078000a00780085fd07000000e000e7
:1016200005003a00050037008a0078002f00070007
:10163000e10f4000010032008904e8003fb097004c
:1016400063005000b0b79f00640454000b00e0003a
:10165000a2ff3a000e0478001fb797000838a300d5
:1016600016003200dfb097000100e00013003400e4
:10167000010478003a0090000068a30007003200df
:1016800009017800010220000a00780068fd0700c7
:101690000000e00006003a00060037008a007800eb
:1016a0000002200011000700e10f4000010032009d
:1016b0008904e8000804e900eeff3a002fb1970022
:1016c00012407800e0df9f000004e0006bfd3a006c
:1016d000090078004f0778004f06be004f05be0096
:1016e0004f04be006f01b10000000600889fbe00dd
:1016f00001047800b80090008084eb000118a3007a
:101700003a003200180190000198a30002003a004c
:101710000200e00035003a000190a000310498007a
:1017200080047800f90fb2000200e00002003a00e5
:1017300028009000000c7800ea8f540005003a0061
:101740000178a30003003a0088007800d000200050
:10175000e6ff070018009000d8009000810f5000ad
:101760000b0032000000e800100498001800780018
:1017700009487800000ce80011c0b300609c20000c
:1017800001487800ea8f540018003a00050037003d
:10179000880078000940780017000700800478006e
:1017a00012003700380090000088a3000f003200bc
:1017b00018019000a8009000480090009ffb0700cf
:1017c00098009000810f5000040032003800900013
:1017d0000003b300300498008084eb000000eb00ad
:1017e0001004980028009000000c78000900780090
:1017f0004f04be00000006000200fa00889fbe00f1
:10180000a0ff9f0001047800380090000068a3004a
:1018100033003a00e200600005003a000003b30024
:1018200030049800110498000080eb002e0037006f
:10183000d80490000900e00006003a0012002000e1
:10184000e6805700480090007cfb070019049800d0
:1018500023003700a80090000100e00008003a00d3
:10186000919c200021049800010c780021002000a8
:1018700051049800110498000030a0003004980032
:1018800018019000a8009000480090006bfb070032
:10189000280090008080eb0011049800aff89700ba
:1018a00001487800000ce8002ff89700ea4f50003c
:1018b0000b003a00380090000088a30008003200b6
:1018c00018019000a8009000480090005bfb070002
:1018d0000000eb0010049800a8009000010c7800b4
:1018e000aff897000100fb004f04be000080fa0033
:1018f0000000060000c0da0000000600020ab9007d
:10190000001bb9000200b8008100420081004300c2
:0419100000000600cd
:020000040000fa
:101914003120000000250000640000003220000097
:1019240000330000003400000035000000360000e1
:1019340000370000003900000025000063000000ab
:1019440054610000736b000031200000435200001a
:1019540041530000484500004420000020200000be
:04196400000000007f
:020000040000fa
:101968000000fa00a302070032002000a1c82800e6
:10197800f08b20008ffc07000000eb004e030700ef
:101988001068ef000900370010c8bf000000fb0016
:10199800f18b2000614078000000fb00da020700ac
:1019a80010c8bf000040e80010e8b70010c8bf002a
:1019b8000000fb00f18b2000614078000004e0008b
:1019c800f1ff3a0011c8bf000000fb00801f78003b
:1019d800d0c82800801f7800f08b20007cfc07000e
:1019e800e48757000000eb00180307001068ef00b9
:1019f8000900370010c8bf000000fb00f18b200071
:101a0800614078000000fb00bf02070010c8bf005b
:101a18000040e80010e8b70010c8bf000000fb0055
:101a2800f18b2000614078000004e000f1ff3a00eb
:101a380000502300c1002000dd05070011c8bf00c9
:101a48000040e80011e8b70011c8bf00e94f500096
:101a5800010034001168ef000080fa000000060061
:101a68000000fa00630207003200200001c92800c4
:101a7800f08a20004ffc0700200020000e0307001a
:101a88000e68ef00090037000ec8bf000000fb0019
:101a9800f18a2000614078000000fb009a020700ec
:101aa8000ec8bf000040e8000ee8b7000ec8bf002f
:101ab8000000fb00f18a2000614078000004e0008b
:101ac800f1ff3a000fc8bf000000fb00801f78003c
:101ad800d0c82800801f7800f08a20003cfc07004e
:101ae800e487570020002000d80207000e68ef00a6
:101af800090037000ec8bf000000fb00f18a200073
:101b0800614078000000fb007f0207000ec8bf009c
:101b18000040e8000ee8b7000ec8bf000000fb0058
:101b2800f18a2000614078000004e000f1ff3a00eb
:101b380000502300c10020009d0507000fc8bf000a
:101b48000040e8000fe8b7000fc8bf00e94f500099
:101b5800010034000f68ef000080fa000000060062
:101b68000000fa00230207002200200031c92800e3
:101b7800f08920000ffc070040002000ce0207007b
:101b88000c68ef00090037000cc8bf000000fb001c
:101b9800f1892000614078000000fb005a0207002c
:101ba8000cc8bf000040e8000ce8b7000cc8bf0034
:101bb8000000fb00f1892000614078000004e0008b
:101bc800f1ff3a000dc8bf000000fb00801f78003d
:101bd800d0c82800801f7800f0892000fcfb07008f
:101be800e487570040002000980207000c68ef00c7
:101bf800090037000cc8bf000000fb00f189200075
:101c0800614078000000fb003f0207000cc8bf00dd
:101c18000040e8000ce8b7000cc8bf000000fb005b
:101c2800f1892000614078000004e000f1ff3a00eb
:101c380000502300c10020005d0507000dc8bf004b
:101c48000040e8000de8b7000dc8bf00e94f50009c
:101c5800010034000d68ef000080fa000000060063
:101c68000000fa00e30107002200200051c9280003
:101c7800f0882000cffb0700600020008e020700dc
:101c88000a68ef00090037000ac8bf000000fb001f
:101c9800f1882000614078000000fb001a0207006c
:101ca8000ac8bf000040e8000ae8b7000ac8bf0039
:101cb8000000fb00f1882000614078000004e0008b
:101cc800f1ff3a000bc8bf000000fb00801f78003e
:101cd800d0c82800801f7800f0882000bcfb0700cf
:101ce800e487570060002000580207000a68ef00e8
:101cf800090037000ac8bf000000fb00f188200077
:101d0800614078000000fb00ff0107000ac8bf001f
:101d18000040e8000ae8b7000ac8bf000000fb005e
:101d2800f1882000614078000004e000f1ff3a00eb
:101d380000502300c10020001d0507000bc8bf008c
:101d48000040e8000be8b7000bc8bf00e94f50009f
:101d5800010034000b68ef000080fa000000060064
:101d68000000fa00a30107002200200071c9280022
:101d7800f08720008ffb0700800020004e0207003c
:101d88000868ef000900370008c8bf000000fb0022
:101d9800f1872000614078000000fb00da010700ad
:101da80008c8bf000040e80008e8b70008c8bf003e
:101db8000000fb00f1872000614078000004e0008b
:101dc800f1ff3a0009c8bf000000fb00801f78003f
:101dd800d0c82800801f7800f08720007cfb07000f
:101de800e487570080002000180207000868ef0009
:101df8000900370008c8bf000000fb00f187200079
:101e0800614078000000fb00bf01070008c8bf0060
:101e18000040e80008e8b70008c8bf000000fb0061
:101e2800f1872000614078000004e000f1ff3a00eb
:101e380000502300c1002000dd04070009c8bf00ce
:101e48000040e80009e8b70009c8bf00e94f5000a2
:101e5800010034000968ef000080fa000000060065
:101e68000000fa00630107002200200091c9280041
:101e7800f08620004ffb0700a00020000e0207009c
:101e88000668ef000900370006c8bf000000fb0025
:101e9800f1862000614078000000fb009a010700ed
:101ea80006c8bf000040e80006e8b70006c8bf0043
:101eb8000000fb00f1862000614078000004e0008b
:101ec800f1ff3a0007c8bf000000fb00801f780040
:101ed800d0c82800801f7800f08620003cfb07004f
:101ee800e4875700a0002000d80107000668ef002b
:101ef8000900370006c8bf000000fb00f18620007b
:101f0800614078000000fb007f01070006c8bf00a1
:101f18000040e80006e8b70006c8bf000000fb0064
:101f2800f1862000614078000004e000f1ff3a00eb
:101f380000502300c10020009d04070007c8bf000f
:101f48000040e80007e8b70007c8bf00e94f5000a5
:101f5800010034000768ef000080fa000000060066
:101f68000000fa002301070022002000b1c9280060
:101f7800f08520000ffb0700c0002000ce010700fd
:101f88000468ef000900370004c8bf000000fb0028
:101f9800f1852000614078000000fb005a0107002d
:101fa80004c8bf000040e80004e8b70004c8bf0048
:101fb8000000fb00f1852000614078000004e0008b
:101fc800f1ff3a0005c8bf000000fb00801f780041
:101fd800d0c82800801f7800f0852000fcfa070090
:101fe800e4875700c0002000980107000468ef004c
:101ff8000900370004c8bf000000fb00f18520007d
:10200800614078000000fb003f01070004c8bf00e2
:102018000040e80004e8b70004c8bf000000fb0067
:10202800f1852000614078000004e000f1ff3a00eb
:1020380000502300c10020005d04070005c8bf0050
:102048000040e80005e8b70005c8bf00e94f5000a8
:10205800010034000568ef000080fa000000060067
:102068000000fa0051428000f00f2000008060005c
:10207800201688005142800000182000808f5000f0
:1020880003003a0010102000504288000a00370070
:102098005142800010102000808f500003003a0049
:1020a8003000200050428800030037005042800072
:1020b800000040005042880000502300c10020006a
:1020c8003b04070000202e004100200038040700d0
:1020d8000080fa00000006000000fa00220020003c
:1020e800d1c92800e0842000b2fa0700e0002000ef
:1020f800710107000068ef000900370000c8bf0041
:102108000000fb00e1842000614078000000fb0033
:10211800fd00070000c8bf000040e80000e8b70065
:1021280000c8bf000000fb00e18420006140780087
:102138000004e000f1ff3a0001c8bf00e14f500081
:1021480010003a00104080000000e80010408800ad
:1021580010408000e90f5000010034000228ef0011
:1021680010408000801f7800d0c82800801f7800a9
:10217800e084200096fa0700e48757000168ef0022
:102188000900370010c0b30001e8b700a002200022
:10219800801f7800f0c92800801f7800e0842000a4
:1021a8008bfa0700e4875700e000200027010700aa
:1021b8000068ef000900370000c8bf000000fb00fe
:1021c800e1842000614078000000fb00ce00070099
:1021d80000c8bf000040e80000e8b70000c8bf0022
:1021e8000000fb00e1842000614078000004e0006a
:1021f800f1ff3a000010270021002000ec0307003f
:102208000080fa00000006000a00fa0030302800ba
:10221800000f7800f03f2000100798001000200001
:10222800200798000000eb00300798000000eb0042
:10223800400798002cf907004e00900000407800f5
:1022480000427800be0190002e0190009e00900090
:102258001e00780028f907000080fa000000060038
:102268000000fa00e8ff0700007d200001002000c0
:1022780010428800214288001042800021428000dc
:1022880000007800bc000700600420000100200066
:1022980010428800214288008003200040308800d6
:1022a800104280002142800000007800b200070040
:1022b800007d200001002000104288002142880093
:1022c800104280002142800000007800aa00070028
:1022d800600420000100200010428800214288008c
:1022e800c000200040308800104280002142800059
:1022f80000007800a0000700007d200001002000f9
:10230800104288002142880010428000214280004b
:1023180000007800980007006009200001002000f4
:1023280010428800214288001000200040308800b8
:102338001042800021428000000078008e000700d3
:10234800007d200001002000104288002142880002
:1023580010428000214280000000780086000700bb
:1023680060092000010020001042880021428800f6
:102378006000200040308800104280002142800028
:10238800000078007c0007004800070002000700f2
:102398000080fa00000006000000fa006009200032
:1023a8000100200010428800214288000000eb0054
:1023b800ebf80700200020004030880006003700b6
:1023c800104280002142800061005000e0805800e7
:1023d800104288002142880010428000214280007b
:1023e800e00f5000e08f5800f5ff3a000080fa0037
:1023f800000006000000fa0060092000010020002b
:1024080010428800214288000000eb00d4f8070041
:102418000008200040308800060037001042800085
:102428002142800061005000e0805800104288007e
:10243800214288001042800021428000e00f5000b5
:10244800e08f5800f5ff3a000080fa00000006000f
:102458000000fa00600920000100200010428800f6
:10246800214288000000eb00bdf80700000c2000a6
:10247800403088000600370010428000214280006a
:1024880061005000e0805800104288002142880016
:102498001042800021428000e00f5000e08f580079
:1024a800f5ff3a000080fa00000006000000fa007c
:1024b80060092000010020001042880021428800a5
:1024c8000000eb00a6f8070010002000403088004c
:1024d8000600370010428000214280006100500051
:1024e800e080580010428800214288001042800095
:1024f80021428000e00f5000e08f5800f5ff3a00bd
:102508000080fa00000006000200fa00004f780080
:102518006004200001002000104288002142880049
:10252800100020008ef807001e00fb0040308800d5
:1025380006003700104280002142800061005000f0
:10254800e080580010428800214288001042800034
:1025580021428000e00f5000e08f5800f5ff3a005c
:102568000000000000000000000000000000000063
:102578000080fa00000006000200fa00000f780050
:10258800010037001e0fe9001e0078000000e0007f
:10259800fcff3a000080fa00000006000400fa0080
:1025a800100798000040eb00004f780010c0b300ff
:1025b800104798008fff0700110037001e00900099
:1025c800104078009e0090008100e80011079800f4
:1025d800cdff07001e407800f34f5000070036007b
:1025e8001e409000e14f500004003a0098ff070099
:1025f8001e4090000040e800104798001e4fe80079
:102608001e009000104078000004e000ebff3a0044
:102618000080fa00000006000200fa00000f7800af
:10262800040037001e007800104078001e0fe800f4
:10263800b5ff07001e007800104078000004e00095
:10264800f8ff3a000080fa00000006000400fa00d3
:1026580020479800600920000100200010428800ef
:10266800214288000000eb003df80700ae409000d2
:1026780000ccb30000cf70001e80fb004030880003
:10268800060037001042800021428000610050009f
:10269800e0805800104288002142880010428000e3
:1026a80021428000e00f5000e08f5800f5ff3a000b
:1026b8000080fa00000006000400fa002047980095
:1026c8006009200001002000104288002142880093
:1026d8000000eb0022f80700ae40900000c8b300ed
:1026e80000cf70001e80fb004030880006003700d5
:1026f800104280002142800061005000e0805800b4
:102708001042880021428800104280002142800047
:10271800e00f5000e08f5800f5ff3a000080fa0003
:10272800000006000000fa002108800000032000d5
:1027380001007000200888000080eb001008880065
:102748000021ef0021058000f0ff280000806000d4
:1027580000d0a000200588008460a9009460a8002b
:1027680005e1a8000080fa00000006000400fa0055
:102778009460a800000000009460a900009c20005c
:102788000108800001087800304280004142800042
:10279800008fbe00009c200010007800e10f400070
:1027a80004003a001e00be0061005000e08058009e
:1027b800008fbe000e00780090407800209c20001a
:1027c800014878000e0078000000e800904078008a
:1027d800309c2000014878000e0078000080e80056
:1027e80090407800409c2000014878000e00780056
:1027f8006300400090407800509c20000148780019
:1028080020048000680060000000e000d8ff3a0063
:102818009460a8000080fa00000006000000fa009a
:10282800d2ff0700009c20001000be000080fa00c4
:10283800000006000400fa00ccff07000e00780034
:10284800119c200091407800014878000e00780023
:102858000000e800219c20009140780001487800a1
:102868000e0078000080e800319c2000914078003c
:10287800014878000e00780063004000419c200069
:1028880091407800014878001e00be000080fa00e0
:10289800000006000400fa00b4ff07000e007800ec
:1028a800219c200091407800014878000e007800b3
:1028b8000000e800319c2000914078000148780031
:1028c8000e0078000080e800419c200091407800cc
:1028d800014878000e00780063004000519c2000f9
:1028e80091407800014878001e00be000080fa0080
:1028f800000006000400fa00008fbe001e02be00a1
:102908006033b800f0012000010020006011b80019
:102918000000420081804a0002014b0083814b0085
:10292800e4032000050020006033b80038f80700f1
:102938000000be000080fa0000000600809fbe0074
:102948000000fa00304280004142800061004000ef
:10295800e080480030428800414288008460a90035
:102968000080fa004f00be00004006000000fa0098
:10297800aaff0700e2032000030020007bf70700fe
:102988000080fa00000006000600fa001007980010
:10299800210798000000eb00000f780001003700c5
:1029a8001e0fe8001e0078004300dd008080e8006c
:1029b800008d200000804000104078000004e000f6
:1029c800f7ff3a001e007800c300dd00008d2000ec
:1029d800008040009e009000010878001e007800ea
:1029e800c300dd00208d20000080400011c0b3002e
:1029f800014878001e007800c300dd00608d2000cb
:102a080000804000ae009000010878001e007800a9
:102a1800c300dd00408d200000804000ae00900023
:102a2800010878002e009000e10f500002003a00e3
:102a38009e009000614288000080fa0000000600b5
:102a48000200fa000000eb00000f78002b003700ae
:102a5800604280000000e000020032006042800016
:102a6800000001001e0078004300dd00e400400083
:102a7800008d200000804000100078008000e900f0
:102a88001e0078004301dd00408d20000000410059
:102a9800010878001e0078004300dd00e4004000d3
:102aa800008d200000804000100078000000e00049
:102ab80011003a001e007800c300dd00008d2000e0
:102ac8000080400010007800000001001e0078001f
:102ad8004300dd00e6004000008d2000008040003b
:102ae800900078001e0078004301dd00408d200032
:102af80000004100010878001e0fe8001e00780061
:102b08004300dd008080e800008d20000080400048
:102b1800104078000004e000cdff3a000000eb0010
:0c2b2800000f780000000000f4ff3700f0
:020000040000fa
:102b34001208000006000000000000001808000051
:102b440006000000000000001e080000060000004f
:102b54000000000042080000040000000000000023
:102b64002408000006000000000000002a080000fd
:102b7400060000000000000030080000060000000d
:102b840000000000360800000600000000000000fd
:102b94003c08000006000000000000004e08000091
:102ba4008200000000000000000800001200000085
:102bb400000000004a0800000200000002000000bb
:102bc40003000000c009000006000000000000002f
:102bd400460800000400000000000000d0080000c7
:102be40078000000000000004c0800000200000013
:102bf400000000004809000052000000020000002c
:102c04003031320033343500363738003941420030
:102c14004344450046003000313233003435360039
:102c240037383900616263006465660000286e000d
:102c3400756c6c002900000001000000000a00000f
:102c44000000640000000000e803000000102700fa
:102c54000000a0008601000040420f0000809600a2
:102c640098000000e1f5050000ca9a003b0000004e
:102c74009a0900002600000002000000c7090000b5
:102c840000c709000900000000020000c909000093
:102c940000c909000e02010000000000000000004d
:102ca4000000000006020200000000009a09000073
:102cb400c60900000600000000000000cc09000066
:102cc40002000000020000000100000000000000fb
:020000040000fa
:102cd4001400fa000000eb00000f78009040800020
:102ce400e10f50001d003200e10f500003003900d5
:102cf400e20f50001d003200320037001cff0700b5
:102d04000001be00a0408000b140800000015100dd
:102d140081815900703e200001002000800f510085
:102d2400818f590005003600100020009040880073
:102d34000fff0700a0408800b1408800a116800062
:102d440000002200008060000000e0001c003a0047
:102d540020002000904088001a00370001fb070083
:102d64001228ef0000000000160037000000eb00fe
:102d7400000f78000e80e8001201200021ca28000c
:102d84008df707000000eb004cfe0700060037003b
:102d94000e80e8001e004000104078000000fb0098
:102da400dafd07001e0fe8000e80e8001e00400058
:102db400104078000004e000f5ff3a00ffff370000
:102dc400000000000080fa00000006000000fa0085
:102dd400d3a2a800c022ef000080fa000000060081
:102de4000200fa00000f780013e1a9001221a900e3
:102df40012c1a900910880000003200001007000a6
:102e0400900888000a21ef001e00780070088800ee
:102e14004105800080ff2f00008060000000a000ba
:102e2400400588008500a9009500a80013e1a800ca
:102e34000080fa00000006000000fa0011e1a90079
:102e44001021a90010c1a90081088000f0fc2f0006
:102e5400008060000050a000800888000621ef0078
:102e640020a127006008880031058000f0ff2800b9
:102e74000080600000c0a0003005880084e0a90044
:102e840094e0a80011e1a8000080fa000000060008
:102e94000000fa00c04080000000e000030032009f
:102ea400e10f50001200320016003700b0fe070098
:102eb4000001be00d0408000e140800000015100cc
:102ec40081815900703e200001002000800f5100d4
:102ed400818f59000a00360010002000c04088008d
:102ee400a3fe0700d0408800e140880005003700b9
:102ef400dcfa07001828ef0000000000010037008a
:102f0400000000000080fa00000006000000fa0043
:102f1400f04080000000e00003003200e10f5000a8
:102f2400120032001600370091fe07000001be00b7
:102f3400004180001141800000015100818159004d
:102f4400703e200001002000800f5100818f590045
:102f54000a00360010002000f040880084fe0700bc
:102f6400004188001141880005003700fdfa070080
:102f74001e28ef00000000000100370000000000e0
:102f84000080fa00000006000000fa0020418000e2
:102f94000000e00003003200e10f50001200320094
:102fa4001600370072fe07000001be0030418000a9
:102fb400414180000001510081815900703e200090
:102fc40001002000800f5100818f59000a00360053
:102fd400100020002041880065fe07003041880071
:102fe40041418800050037001efb07002428ef003c
:102ff4000000000001003700000000000080fa001b
:10300400000006000000fa00804180000000e0009b
:1030140003003200e10f50001200320016003700a6
:1030240053fe07000001be0090418000a1418000d2
:103034000001510081815900703e200001002000f0
:10304400800f5100818f59000a00360010002000c3
:103054008041880046fe070090418800a141880015
:10306400050037003ffb07003028ef000000000098
:1030740001003700000000000080fa000000060094
:103084000000fa00b04180000000e00003003200bc
:10309400e10f5000120032001600370034fe070022
:1030a4000001be00c0418000d141800000015100f8
:1030b40081815900703e200001002000800f5100e2
:1030c400818f59000a00360010002000b0418800aa
:1030d40027fe0700c0418800d14188000500370061
:1030e40060fb07003628ef000000000001003700f5
:1030f400000000000080fa00000006000000fa0052
:10310400e04180000000e00003003200e10f5000c5
:10311400120032001600370015fe07000001be0041
:10312400f04180000142800000015100818159007a
:10313400703e200001002000800f5100818f590053
:103144000a00360010002000e041880008fe070055
:10315400f0418800014288000500370081fb070028
:103164003c28ef00000000000100370000000000d0
:103174000080fa00000006000000fa001b000700af
:1031840012ff070068fd07002bff070020a127009e
:1031940013ff070033fc070071002000a074210016
:1031a400fafd070027fe07000080eb000080fa000c
:0431b4000000060011
:020000040000fa
:1031b800f03fb1000180b10006003500ee030900c0
:1031c80000000000403fb1000180b100fbff3d005e
:1031d8001000b000203fb000020035000080090058
:0831e8000000000000000600d9
:020000040000fa
:1031f0000000fa000001eb006004200071052000cf
:103200002374200080497800814978008249780041
:1032100000102300203a88004827ef000080fa00c1
:10322000000006000000fa0050418000e10f50004d
:1032300002003a002a28ef008bfb07000080fa000a
:10324000000006000000fa0060418000e10f50001d
:1032500002003a002c28ef00a1fb07000080fa00d2
:043260000000060064
:020000040000fa
:020000040002f8
:04aff800bdfb00009d
:020000040000fa
:020000040002f8
:04affc007f3f000093
:00000001FF
